:10000000F8FF022099010000792D0000312D000039
:10001000312D0000312D0000312D0000312D000068
:10002000312D0000312D0000312D0000792D000010
:10003000792D0000312D0000792600007D2600007A
:10004000792D0000792D0000792D0000792D000018
:10005000792D0000792D0000792D0000792D000008
:10006000792D0000792D0000792D0000792D0000F8
:10007000792D0000792D0000792D0000792D0000E8
:10008000792D0000792D0000792D0000792D0000D8
:10009000792D0000792D0000792D0000792D0000C8
:1000A0003D1B0000491B0000792D0000792D000048
:1000B000792D0000792D0000792D00004D380000C9
:1000C000792D0000792D0000792D0000792D000098
:1000D000792D0000792D0000792D0000792D000088
:1000E000792D0000792D0000792D0000792D000078
:1000F000792D0000792D0000792D0000792D000068
:10010000792D0000792D0000792D0000792D000057
:10011000792D0000113B0000792D0000792D0000A1
:10012000792D0000792D0000792D0000792D000037
:10013000792D0000792D0000792D0000792D000027
:10014000792D0000792D0000792D0000792D000017
:10015000792D0000792D0000792D0000792D000007
:10016000792D0000792D0000551B0000792D00002D
:10017000792D0000792D0000792D0000792D0000E7
:10018000792D0000792D0000792D0000792D0000D7
:10019000792D0000792D0000584B4CF2205210B5FB
:1001A0001A804DF628121A8000BF00BF02F0E8FD49
:1001B000534B4FF030621A60524A9A60524ADA60EA
:1001C000524B4FF470021A60514A136813F4807353
:1001D00004D150490B604FF4A85313604E4B1A786A
:1001E000110703D51A7842F008021A704B4B4C499C
:1001F0002A221A704B4A4C4B8B4204D252F8040FFD
:1002000043F8040BF8E7494B494900228B4202D2DC
:1002100043F8042BFAE74749474A002352F82300E2
:1002200041F823000133662BF8D1444B444A802126
:1002300003F8011B9342FBD1424B3E4A1A60424BEA
:100240008A221A70A3F5805324225A70A0221A70B1
:100250009A799207FCD59A79D406FCD43B4A9379D3
:1002600003F00C03082B394BF9D103221A714622F3
:100270005A719A799006FCD5344A9179334B4906E4
:10028000FBD5334A4FF08271116009215160202261
:100290001A709A7902F00C020C2AFAD12D4B2E4AD0
:1002A0001A602E4B2E4A1A6000225A60072243F829
:1002B000042C2C4AC3F80C2D62B602F0B7FE154B85
:1002C0001B68DA0705D5284802F022FE274B284A8A
:1002D0001A60284B1B785B0609D5244C244B2268F6
:1002E0009A4204D1204802F013FE0023236006F056
:1002F000CFFD02F04BFD02F079FCFEE70E20054039
:1003000030800440823F04000100002B88ED00E0B3
:1003100010D0034014D0034002D0074000E0074053
:100320005C18FF1F048F0000F806FF1F6018FF1FF6
:10033000C41EFF1F0002FF1F0000000000E400E0D9
:1003400056E400E008ED00E00050064000400640A2
:100350004480044004800440C010050014E000E024
:10036000BFD4010000002020DEDC76601CE00340EA
:10037000A5C3945A00F00740FFFFFFFFFFFFFFFFF8
:10038000FFFFFFFFFFFFFFFFFFFFFFFFFFFFFFFF7D
:10039000FFFFFFFFFFFFFFFFFFFFFFFFFFFFFFFF6D
:1003A000FFFFFFFFFFFFFFFFFFFFFFFFFFFFFFFF5D
:1003B000FFFFFFFFFFFFFFFFFFFFFFFFFFFFFFFF4D
:1003C000FFFFFFFFFFFFFFFFFFFFFFFFFFFFFFFF3D
:1003D000FFFFFFFFFFFFFFFFFFFFFFFFFFFFFFFF2D
:1003E000FFFFFFFFFFFFFFFFFFFFFFFFFFFFFFFF1D
:1003F000FFFFFFFFFFFFFFFFFFFFFFFFFFFFFFFF0D
:10040000FFFFFFFFFFFFFFFFFFFFFFFFDEF9FFFF23
:1004100010B5054C237833B9044B13B10448AFF33E
:1004200000800123237010BD6018FF1F0000000032
:10043000008F0000084B10B51BB108490848AFF306
:1004400000800848036803B910BD074B002BFBD0A0
:10045000BDE81040184700BF000000006418FF1FEF
:10046000008F00005C18FF1F00000000F0B51A4B61
:100470001A4A597B186987B00024012512271326D0
:100480002346049202972246019605950394009410
:1004900000F088FB124801F01DFE2946114801F0CA
:1004A00077FE06270526104A104B0192009302940E
:1004B00004970396F8230E4A0E48FF2101F0F0FE40
:1004C000072000900297019622462B4629460A48AB
:1004D00001F09EFB07B0F0BD941CFF1F801A0600C0
:1004E000100FFF1F281BFF1F401CFF1FFC06FF1FD4
:1004F0001C07FF1F8018FF1FC819FF1F70B504F0ED
:1005000067F900287CD1414C2078722800D070BD5A
:100510003F4E4048404D01F06BFE304601F0C0FFB9
:100520003E4801F091FC3E4801F00AFD394801F0D7
:1005300091FE384801F072FED6F8FC2000239A4262
:100540002B6016DD06EB8303D3F8240105F088FF4A
:1005500041EC100B0221334802F08EF901213248A0
:1005600004F060F92B68D6F8FC2001339A422B6026
:10057000E8DC2A4EB26D00239A422B6014DD06EBB4
:100580008303D86D05F06CFF41EC100B0521254865
:1005900002F072F90121244804F044F92B68B26D8D
:1005A00001339A422B60EADC1D4B1A4D986805F026
:1005B00057FF41EC100B02211A4802F05DF90121AE
:1005C000194804F02FF9286A05F04AFF41EC100B96
:1005D0000221144802F050F90121134804F022F9D5
:1005E000E86905F03DFF41EC100B02210D4802F0D7
:1005F00043F901210D4804F015F90023237070BD63
:1006000004F0AAF8014CC0B220707EE7241BFF1F43
:100610008018FF1F281BFF1F7C18FF1FC819FF1F12
:10062000601CFF1F640FFF1F9C7F0000A07F000065
:1006300000B583B0062300937622052318210A48CB
:1006400001F086FD7021094801F018FE4922482179
:10065000074801F0CDFA07484FF4E13103B05DF8E7
:1006600004EB01F085BC00BF281BFF1F8018FF1F93
:10067000C819FF1F601CFF1F002070470369D3F8D3
:100680003801D3F83431C01A704700BF0369D3F87A
:100690003411D3F83821914208D2D3F83421511CB7
:1006A0001A44C3F8341192F8300070474FF0FF300D
:1006B000704700BF0369D3F83411D3F83821914251
:1006C0003DBFD3F834219B1893F830004FF0FF3032
:1006D000704700BF704700BF0369D3F84422B2F5EA
:1006E000817F03D90123037100207047D3F844228E
:1006F00010B49C180132C3F8442284F83C11012044
:100700005DF8044B704700BF38B503690A4A0260C0
:1007100093F84822022A044601D0204638BDD3F877
:100720007452002DF9D0284601F028FF28460821F0
:1007300002F064FB204638BDAC7F000038B5036989
:100740000546D3F84402B0F5817F1AD81446D3F891
:100750004422D3F84402C2F58172013203F59E733C
:10076000A242184402D2012314462B71224602F001
:1007700045FA2A69D2F844322344C2F8443220466A
:1007800038BD01232B71002038BD00BF2DE9F04F8B
:10079000574C83B006460D4692461F469DF8308062
:1007A0009DF834E09DF8389023462146002202202F
:1007B00004E004321C2A36D011F8040F8542F8D127
:1007C00048785045F5D196F84A121A448A4592F86D
:1007D00003B000F08680BBF1000F28D0BEF1000FFF
:1007E0000BD096F84C2296F84A020193002A14BFC7
:1007F0000221002102F0A4FB019B4FEA0B2202F42C
:10080000E062B8F1000F60D142F06402394901EBB7
:10081000CA01012049680A6086F84AA286F84C821B
:1008200086F8980203E096F84A224FF0000B002267
:10083000022104E004321C2A36D014F8041F8D4231
:10084000F8D1A178B942F5D11A4496F84B32D47850
:100850009F4240D0002C34D0B9F1000F09D096F857
:100860004C3296F84B02002B14BF0221002102F0FB
:1008700067FB230203F4E063B8F1000F28D143F0D3
:1008800064031C4A02EBC70201215268136086F818
:100890004B7286F84C8286F89912BBF1000F10D08B
:1008A000012003B0BDE8F08F96F84B32BB4208D16F
:1008B000B9F1000F05D00024BBF1000F01D0002CCE
:1008C000EED1002003B0BDE8F08F42F003029DE7B7
:1008D00043F00303D5E7B9F1000FEDD1002CC8D1E7
:1008E000EFE7BEF1000FA2D1BBF1000F85D19EE76B
:1008F000C87F0000E0830000F8B5C3681B789B0642
:1009000010D483680D4680211970C36812211970B4
:1009100090F84932012B044606D08AB980F8482263
:100920000120F8BD0020F8BD1A4675B95E4B4FF0A6
:1009300080711960022A0FD0012084F84802F8BDA6
:10094000531E012BF1D90120F8BD012D4BD1564B7F
:100950004FF000711960EDE7D4F87462002E00F0DA
:1009600097803379102B30D0002D43D132684F4916
:10097000938B4F4F9BB243F008039383327953110B
:1009800002F110009B0041F8207003F1604303F571
:100990006143012102F01F0201FA02F231681A607C
:1009A0008B8B9BB243F002038B83337903F180433B
:1009B00003F5043392221D701A700022022384F87A
:1009C0005E2284F848320120F8BD304601F0D6FDA1
:1009D0003046082102F012FA00230120C4F87432D4
:1009E00084F84802F8BD022DA4D1324B4FF4806147
:1009F00019609FE7012D26D132682C49938B2E4F29
:100A00009BB243F0080393833279531102F1100033
:100A10009B0041F8207003F1604303F5614302F04D
:100A20001F02954032681D60938B9BB243F0020316
:100A30009383337903F1804303F504330021932238
:100A400019701A70B9E7022DB7D1D4F8741217488B
:100A50000A681A4E938B9BB243F0080393830A797A
:100A6000531102F110059B0040F8256003F160432B
:100A700003F56143012002F01F0200FA02F2086848
:100A80001A60838B9BB243F0020383830B79D1E717
:100A9000082002F0B1F9314607463E4601F00AFD52
:100AA000C4F874725DE700BF00E100E00002FF1FC0
:100AB0003D1B000008E100E0491B0000551B000041
:100AC000F0B5284EDFF8ACE0A6FB0143A6FB0242DE
:100AD0009E0937027546960914240023B7FBF6F6E3
:100AE00004E00133372B1BD055F8044F2202964205
:100AF000F7DA83BB14241C4A4568B1FBF4F4914235
:100B00002B70C0F8504207D8184B8269A3FB013103
:100B1000C1F307511170F0BD836904221A70F0BD52
:100B2000002422464FF470274FF470654FF0360CC6
:100B3000B21AF71B002A87EAE776A6EBE776B8BF7A
:100B40005242964202DD0A4AD35CD4E7084B2C4657
:100B500013F80C30CFE703F1FF3C5EF82C502F0266
:100B6000E6E700BFD34D6210FF6BDC02819F5E168B
:100B7000C4800000E87F0000F0B49DF814409DF8A8
:100B800010609DF818503CB135B1C7683F78BF067A
:100B900002D50020F0BC7047069505940496F0BC81
:100BA000FFF7F4BD2DE9F04184B0044694469DF86A
:100BB00028609DF82C209DF830009DF834E09DF8C9
:100BC0003C700D4600294CD1DFF8F880D8F80010B1
:100BD00041F04001C8F80010002184F849C284F8AF
:100BE0005512BCF1000F2BD163692021197012B985
:100BF00094F84A22D2B210B994F84B02C0B294F8D9
:100C0000981294F8996202960346CDF800E001919B
:100C100020462946FFF7B0FF0E9A29492046FFF7E4
:100C20004FFF3A4629462046FFF766FE94F84932C0
:100C3000002B37D0A368C0221A7004B0BDE8F08141
:100C40006169CEB14FF0280C81F800C09E42216846
:100C50002ED95B00DBB20B707600E369F6B21E7032
:100C6000C5E7012913D1DFF85C80D8F8001041F006
:100C70008001C8F80010AFE74FF0200C81F800C0E9
:100C800021685B00DBB20B70E3691E70AFE70229DD
:100C9000A2D1DFF83480D8F8001041F04001C8F844
:100CA000001099E7A36880221A7004B0BDE8F081B3
:100CB0007600F6B20E705E00E369F6B21E7096E73B
:100CC0000087930334800440288004402DE9F041DC
:100CD000154682B004460F46984602F037F90DB922
:100CE000D4F8785202F032F9A3681A7892060646D0
:100CF00009D5B4221A70374B1B78002B35D0012050
:100D000002B0BDE8F08155BBE3681B7803F0200317
:100D100003F0FF02002BF6D1A36884F84922B02229
:100D20001A70A3681B7803F0200303F0FF00002B68
:100D3000E1D1062384F85532D4F89032013304D03F
:100D4000D4F890320133C4F89032D4F87032002BCA
:100D5000D6D001909847019802B0BDE8F08102F02A
:100D6000F5F8801B8542CFD8DBE794F84832013B89
:100D7000012BC4D802F022F8012F1DD012D3022F6C
:100D800010D1154B1B788342B9DB0F2817DD012FDB
:100D900019D00AD3022F08D1A0F110030E4ADBB2FA
:100DA0001370ACE70D4B1B78EDE7A0F110030B4A75
:100DB000DBB213700120A3E7094B1B78E3E70120A6
:100DC00088F800009CE7A0F11003054ADBB2384622
:100DD000137095E7A81CFF1F4AE400E018E400E048
:100DE00019E400E00369490083F83C11036900221B
:100DF0000121C3F84412027183F85522704700BFE5
:100E00002DE9F043054683B0D0F8440200248DF864
:100E10000740C0B190461C460BB9D5F87842AA6984
:100E2000137843F050031370AA69137803F0DF03BB
:100E30001370EB6812221A7028460DF10703224640
:100E4000FFF744FF10B903B0BDE8F08395F84832CE
:100E5000BBB19DF80720A2B9591E0129F3D808217A
:100E6000022B85F8551285F85482C5F8402200F00F
:100E7000A180AB68F0221A702B6995F83C211A709A
:100E8000E1E702F063F8082385F85532D5F844729B
:100E900085F8548206465FB305F23B1800274FF0F1
:100EA0000209002C44D12B6918F8012F1A70EA6846
:100EB0001378980737D4002CFAD002F047F8801B3B
:100EC0008442F4D8EB6883F8009002F03FF8801B6E
:100ED00084420BD9EA681378DBB2D9063AD4DB072F
:100EE0004AD4D5F844320137BB42DAD895F8548257
:100EF000AB68B8F1010F0CBF8022B0221A70D5F890
:100F00004432BB421AD9012385F85532D5F88032D4
:100F1000013304D0D5F880320133C5F88032D5F8DA
:100F200070329BB98FE782F80090002CD2D0CCE7CA
:100F300002F00CF8801B8442B5D8D7E7D5F86032B0
:100F4000002285F85522002B3FF47DAF984703B06F
:100F5000BDE8F0831023042185F855121370AB68A7
:100F600080221A70D5F88C320133D8D0D5F88C3263
:100F70000133C5F88C32D2E77FB9022385F85532A8
:100F8000D5F88432013304D0D5F884320133C5F862
:100F90008432AB6880221A70C1E7032385F855328A
:100FA000D5F888320133F4D0D5F888320133C5F84A
:100FB0008832EEE7D5F84432042B7FF65AAFD5F8E5
:100FC000741201200C6885F85E02D5F84432E27193
:100FD0000E68A08005F59F772760B0600C68033B22
:100FE00098B2E08309685B42E360C882D5F8741266
:100FF00028690B68B0F1804F9A7118619A820B686A
:1010000001D39A6812B901229A600B6800229A6192
:101010002FE700BF2DE9F04182B000258DF8075081
:101020009DF82070099E2BB1B3F5827F05D305236F
:1010300080F8553202B0BDE8F081C0F83451C0F8F4
:101040005832C0F838510EB9D0F8786290468269AB
:10105000137843F0500313708269137803F0DF03B1
:101060001370C36812221A700DF10703324604464A
:10107000FFF72CFE0028DDD094F848321BB19DF814
:101080000720002A51D001F061FF4FEA480343F0E6
:101090000103226984F85472DBB2092184F85512E5
:1010A00005461370E26813789B071ED4002EFAD011
:1010B00001F04CFF401B8642F4D8E36802221A700C
:1010C00001F044FF401B864213D8A268012380210F
:1010D000117084F85532D4F8803201331FD0D4F81F
:1010E00080320133C4F8803219E002231370002EDD
:1010F000E6D1E2681378DBB2D9062CD4DF073CD501
:10110000A3680221802284F855121A70D4F8843220
:10111000013304D0D4F884320133C4F88432D4F8D3
:101120007032002B86D0984784E7591E012981D858
:101130000921022B84F8547284F8551200F0E080E3
:10114000A268F02111704FEA480343F001032269BD
:10115000DBB213706EE71023042184F8551213706C
:10116000A36880221A70D4F88C320133D7D0D4F817
:101170008C320133C4F88C32D1E7D4F858320A22C9
:10118000012BA36884F855220CBFA822A0221A7054
:1011900023691B784FF00008B027D4F85832D4F8F0
:1011A00038219A42BFF446AF94F855320A2B7FF4A7
:1011B00041AFE268137898073CD4002EFAD001F0D2
:1011C000C5FE401B8642F4D8E36802221A7001F083
:1011D000BDFED4F83821D4F85832401B911C864209
:1011E0008CBF00220122994206D086422FD894F863
:1011F0005D22002A4CD10122A368A8211970D4F8DD
:101200003811D4F858320131994226D2002A5AD0E6
:1012100094F85D32002B3DD1D4F838312269591C45
:10122000C4F838112344127883F83020012384F85D
:101230005D32B2E702231370002EC8D1D4F83821F2
:10124000D4F8583202329A4201D13246D4E7D4F867
:1012500038210132934236D80022A36884F85D8297
:101260001F7023691878D4F83831E1180133C4F8B5
:10127000383181F8300094F85432012B1CD06ABB0D
:10128000D4F8643284F85522002B86D0984784E73E
:10129000D4F83821A36884F85D821F702369197817
:1012A000D4F83831E2180133C4F8383182F83010FC
:1012B00094F85422012A11D12823013BFDD1A368BF
:1012C00080211970DBE7D4F838212169501CC4F85B
:1012D00038012244097882F8301060E7012384F84D
:1012E0005532D4F88032013304D0D4F8803201333F
:1012F000C4F88032D4F87032002B97D0984795E725
:10130000D4F85832042B7FF61BAFD4F8743220691E
:101310001968012584F85E52B0F1804FCA718A8045
:1013200008601A6801D3916811B9012191601A68A7
:10133000D4F87412D4F8583208680025D560857145
:101340000E6804F13002012502618582B5600868EB
:10135000013B9AB2C28309685B428361CA82EFE6AD
:10136000036993F85532013B052B0CD8DFE803F0F5
:10137000030709030503042070470120704702207A
:101380007047032070470079003018BF0120704774
:1013900070B51546044601F0D9FD0DB9D4F8785260
:1013A00001F0D4FD064694F85532072B1AD9002DCA
:1013B000F9D001F0CBFD801B8542F4D801F0C6FDC9
:1013C000801B854210D894F84832022B0CD194F837
:1013D0005E324BB194F85532072BFBD8012384F8C9
:1013E000553201E0002DE9D194F85532072B02D98E
:1013F000012384F85532A023013BFDD194F8550216
:10140000B0FA80F0400970BDF8B5069E0C4615464E
:1014100007461A46294620463346FFF7F1FC324676
:1014200029462046FFF7B4FF3846BDE8F840FFF7ED
:1014300097BF00BFF0B583B09DF8206013B90020BE
:1014400003B0F0BD099F04460D468DE8C000FFF7CC
:10145000E1FD099A29462046FFF79AFF0028EED0C1
:10146000D4F8380103B0F0BDD0F83421D0F83831C9
:101470009A4208D2D0F834315A1C0344C0F83421BF
:1014800093F8300070474FF0FF3070472DE9F0417E
:10149000BF4EC7683378D0F808E00133DBB2337051
:1014A0003D789EF800300446DBB2806903F02002EC
:1014B0000178EDB2FAB113F0100F94F85E327FD0DC
:1014C000022B00F0D78094F85E32032B00F0D2801C
:1014D00094F85532082B00F0238294F85532092BEA
:1014E00000F05C8294F85532012B00F0CC8180230F
:1014F0008EF800305BE002F0FF08EA0624D405F025
:10150000400202F0FF071ABB03F0100303F0FF02D2
:10151000002B00F08E8015F0010540F0A881D4F872
:101520004022D4F844329A4207D2D4F840325A1CAE
:101530002344C4F8402293F83C5123691D70A368EA
:10154000D0221A70A06979E0102368063B7029D573
:1015500094F855320C2B00F00F8105F0040505F0CE
:10156000FF02002D73D0A3680021D0220B2084F845
:101570005502C4F844121A702269D4F86C12137818
:101580005B0884F8563209B188472269D4F844329E
:10159000002B00F0758194F83C8182F800800123D3
:1015A000C4F84032A269137843F050031370E36823
:1015B00002221A703378013BDBB23370BDE8F08150
:1015C000022B00F09F8094F85E32032B00F09A808B
:1015D000D4F83831D4F858220233934200F04181D4
:1015E00094F85532012B00F03781D4F838310133AB
:1015F000934280F00B8194F85532012B00F0018169
:10160000D4F838312269591CC4F8381123441278AF
:1016100083F83020E36802221A7094F85532DBB266
:10162000012BC7D194F85D22002AC3D184F85D3222
:10163000C0E794F855320C2B00F09381037843F007
:1016400050030370E36802221A70BDE8F081A169BB
:101650000B7843F020030B70A3680C20C02184F8A2
:101660005502C4F83821197023691B785B0884F887
:10167000563297E7D4F8742213689B8B190604D569
:1016800094F85E32022B00F0B08094F85E32032BA7
:1016900000F086803F4B12791968012393400B427A
:1016A00088D03D493D4B0A70D4F8741209791970FD
:1016B0000022072384F85E2284F85532D4F894324D
:1016C000013304D0D4F894320133C4F89432ED06D7
:1016D00011D5042384F85532D4F88C32013304D068
:1016E000D4F88C320133C4F88C32E2681021002324
:1016F0001170C4F84032A36880221A70E368022295
:101700001A7032E0D4F874321A68928B120603D53C
:1017100094F85E22022A5CD094F85E22032A00F03C
:10172000D6801C491A790968012393400B423FF483
:1017300041AF1949194B0A70D4F8742212791A7002
:10174000A36880220020072184F85E0284F85512E5
:101750001A70E36802221A70D4F89432013304D06C
:10176000D4F894320133C4F89432D4F87032002B98
:101770003FF420AF98471DE7D4F86832002B3FF4C0
:10178000ECAE0022C4F83421D4F838019847E4E6DE
:10179000A81CFF1F2C8000401E8000401F800040BE
:1017A0003B781B06FCD5C34B12791A70002384F8D2
:1017B0005E32D4F844322169013BC4F84032D4F897
:1017C00040322344022293F83C310B70E3681A70D4
:1017D000F0E6B9491B790B70A368E8211970E3683A
:1017E000032184F85E121A70E4E6B34912790A7094
:1017F000A268F0211170E268032184F85E12137070
:10180000D8E694F85D32002B3FF4FAAEA3680021CD
:10181000B02284F85D121A70D4F838312269591C4C
:10182000C4F838112344127883F8302094F85432E5
:10183000012B00F0C580E36802221A7094F855323B
:10184000012B36D0D4F86432002284F85522002BC4
:101850003FF4E3AE9847E0E694F85D32002B7FF466
:10186000C4AEE8238EF80030D4F85822BDE6C02379
:101870008EF800302369A0691B7884F85572DDE684
:1018800084F83C3189E694F85432012B0CBF802354
:10189000B0238EF80030E36802221A70D4F8803248
:1018A00001333FF462AFD4F880320133C4F88032A0
:1018B0005BE7D4F88032013304D0D4F880320133AE
:1018C000C4F88032D4F87032002BC3D1A5E6794A2F
:1018D0001B791370A3680021B02284F85E121A707D
:1018E000D4F858322269013BC4F83831D4F8383181
:1018F000591CC4F838112344127883F8302094F826
:101900005432012B00F0DA80E36802221A70D4F816
:101910006432002284F85522002B7FF42BAF49E675
:1019200005F0100303F0FF02002B50D00023042128
:10193000102284F85E3284F855123A70A268802131
:101940001170E268C4F8403202231370D4F88C326C
:1019500001333FF40AAFD4F88C320133C4F88C322F
:1019600003E7C9B211F0500F4AD0037843F0500397
:101970000370A1690B7803F0DF030B70E3680221A9
:101980001970D4F8683284F85522002B3FF412AE57
:10199000C4F83421D4F8380198470BE6E80641D55D
:1019A0000422102384F855223B70A36880221A7009
:1019B000E36802221A70D4F88C320133CBD1D4E61A
:1019C0002823013BFDD1A36880221A7033E715F06C
:1019D00001053CD084F85E22D4F84032002B7CD143
:1019E000022384F85532D4F88432013304D0D4F879
:1019F00084320133C4F8843280238EF800307DE6CF
:101A000023691B78D4F83821B2F5817FDBB23FF629
:101A100015AED4F83821A1180132C4F8382181F864
:101A200030300BE6E9072ED50223802284F85532A8
:101A30008EF80020E2681370D4F8843201333FF44A
:101A400094AED4F884320133C4F884328DE6D4F8ED
:101A500040320133C4F84032D4F84422934234D3A4
:101A600094F8543284F85552012B0CBF8023B023D4
:101A70008EF80030E36802221A70D4F86032002B2E
:101A80007FF478AE96E594F85E32012B32D0D4F82C
:101A90005832012B4FF00A020CBFE823E02384F8F0
:101AA00055228EF800302269E368127802221A70FB
:101AB00080E500BF1C8000401F8000402823013BC0
:101AC000FDD1A36880221A701EE794F85E32012BC4
:101AD00020D0D4F84032216973E6032384F85532CC
:101AE000D4F88832013387D0D4F888320133C4F86F
:101AF000883281E70223E12284F85E328EF80020EA
:101B0000D4F874120C4A097911702169E2680978D5
:101B100013704FE50223F12284F85E328EF8002024
:101B2000D4F87412044A09791170226994F83D11AD
:101B30001170E26813703DE51B80004000210148F0
:101B4000FFF7A4BC3C07FF1F01210148FFF79EBC23
:101B5000D809FF1F02210148FFF798BC740CFF1F32
:101B60002DE9F8431B4BDFF88090DFF880801A4E98
:101B70001A4D1E6000244FF47A774A4641461C7184
:101B80001C739F6018465C731D6103F08BF8144B47
:101B900005F5277201211A611C714A469F601C736A
:101BA0005973184641461E6003F07CF80D4B4FF008
:101BB000020E05F5A7651C711C7383F80DE04A46FB
:101BC000414618461D619F601E60BDE8F84303F062
:101BD00069B800BF941CFF1FAC7F00003C07FF1FCB
:101BE0006C1CFF1F801CFF1FF806FF1F0907000069
:101BF00070B504461546E4300E4603F059F8294600
:101C000004F5907003F054F826606560204670BDBE
:101C10002DE9F04F8DB00446189E8348834D9DF802
:101C200058A0F7B24FF0000B50F83700179FA76489
:101C30000127E66480F880700E4628462178904699
:101C40009946FFF7CFF86A7B2969CDF800B03B468B
:101C50002846FFF7D9FB2065002841D07449754F0D
:101C600008A800F025FF1022216804A800F042FF18
:101C700004A908A800F08AFF6F4900F08FFF014611
:101C80006E4800F083FD6D4800F0A6FD04A800F04A
:101C9000CFFE08A800F0CCFE3B680293029B636570
:101CA000012194F8480001F045F921785F48FFF7D9
:101CB00099F86A7B29695D48CDF800B00123FFF7E8
:101CC000A3FB206538B13B680393039B626D9B1AAD
:101CD000B3F5FA7FE4D3002194F8480001F02AF923
:101CE000217952484FF0000BFFF77CF86A7B296995
:101CF0004E48CDF800B00123FFF786FB074620656C
:101D000000287FD0217849484A4FFFF76BF84C49AB
:101D100008A800F0CDFE1022616804A800F0EAFED9
:101D200004A908A800F032FF464900F037FF014639
:101D3000424800F02BFD414800F04EFD04A800F0A1
:101D400077FE08A800F074FE3B680493049B63656B
:101D5000012194F8480001F0EDF821793348FFF7AC
:101D600041F86A7B29693148CDF800B00123FFF7BB
:101D70004BFB206538B13B680893089B626D9B1A4A
:101D8000B3F5FA7FE4D3002194F8480001F0D2F8CB
:101D900053464A46414604F1E40002F0A9FF534687
:101DA0004A46414604F5907002F0A2FF0023E3602A
:101DB000236104F1180104F138020023012546FAD9
:101DC00003F0C00709D5032B8ABF03F003000B60A3
:101DD0000860E06815700130E0600133082B01F104
:101DE000040102F10102EAD194F84C200E48E168A6
:101DF00050F8322023610123A16582F800310DB033
:101E0000BDE8F08F53464A46414604F1E40002F033
:101E10006FFF53464A46414604F5907002F068FF52
:101E2000E7602761C5E700BFE0830000941CFF1F47
:101E3000FC800000C01CFF1F2C810000640FFF1FEE
:101E400050810000808100002DE9F04190F84C3075
:101E5000DFF8E88058F833300022012183F8801041
:101E6000044613464261026100F1E40700F59076F2
:101E70004CF6203517E02269A118134691F83C1062
:101E800019BBA11891F8381049B12B46013BFDD17F
:101E9000002945D11346A21892F83C203ABB0133E1
:101EA000032B236133DCE21892F83820002AE2D0B9
:101EB0000633384654F8231002F062FF2269A11855
:101EC000134691F83C100029DBD00A32304654F812
:101ED000221002F055FF2269A018134690F838101E
:101EE0000029D2D190F83C000028CED1D7E7304667
:101EF00002F078FF62692369D4F8200104EB8201C3
:101F000001330132032BC86562612361CBDD94F894
:101F10004C3058F83330012283F80021BDE8F081BD
:101F2000384602F05FFF6369D4F8E400226904EBED
:101F300083010133C8656361ACE700BFE083000043
:101F400038B50446722001F073FB0023636006E09D
:101F5000656801F009FC605563680133636001F056
:101F6000F3FB0028F4DC2368A36094ED020A38BD7B
:101F700010B50446024800F099FB204610BD00BF92
:101F8000480FFF1F10B4047F4160022CC26003D0D1
:101F90005DF8044B00F00EBB83685DF8044B1847F6
:101FA000F0B4464B464A186BDC6A0179117045491A
:101FB00022790A709A6A00790870002A46D0596816
:101FC000C9688A423ED82168CC8B240402F1FF30D4
:101FD00065D4C0F30E00C883C88B80B2C882196B69
:101FE0000968C88B000452D4C2F30E00C883C88BA2
:101FF000002480B212F1FF32C88218BF01229C6215
:10200000D96A2E4809680D6800F12404A54236D02B
:102010000068C46814F0804F0C680D6815BF2488F0
:1020200024780235013544F000440D604463196B97
:10203000254B09791970214912B1CA6A12791A70AF
:10204000F0BC7047521A9A620122D9E7586B19689E
:1020500005681E4C0A63CC62CC682D681C4E24F0C7
:1020600080440327B542CC6083F825701FD1037FDD
:102070004260022BC2601ED0F0BC00F09BBA016827
:1020800090F82400CC6840F000404863CFE7CC8B48
:10209000C2F3080004F47E442043C883A7E7CC8B36
:1020A000C0F3080004F47E442043C88394E72B4621
:1020B0001146F0BC18478368F0BC1847100FFF1F8B
:1020C0001F8000401C8000401B80004000000FFF6C
:1020D000851F000090E80C00F0B41C685968256862
:1020E000164F174E29432160164D17491760D660C9
:1020F00015611160417A154A5C180C3194F82C4036
:1021000053F8215002EBC40149680D60017A5C1854
:1021100003EB8101247ECD6902EBC40149680D60A7
:10212000817A581803EB810390F84000596C02EB58
:10213000C002F0BC53681960704700BF01401F0027
:10214000011000380110007800001F80E0830000BB
:102150002DE9F041044615464FF47A700022884676
:102160006061227604F12800EAB20849069E1F4603
:1021700002F076FE414604F1D80003F09DFD276091
:102180006660E5602046BDE8F08100BF941CFF1F3B
:1021900030B5044683B00D460078012100F0D0FE32
:1021A0002079012100F0CCFE012D01D003B030BD1B
:1021B00000238DE828002A462B464FF4D77104F1FE
:1021C000D80003F099FD04F1280003F019FD01285F
:1021D000ECD05221044802F025FB044800F0FCFA40
:1021E00084F8255003B030BDF8820000640FFF1F53
:1021F00090F8243003B1704710B5044682B0D8304F
:1022000003F09CFD044B1B680193019B2361012398
:1022100084F8243002B010BDC01CFF1F10B50C4B59
:1022200002691B6882B00193019B9B1A412B03D862
:1022300090ED070A02B010BD0446D83003F0F2FD5D
:10224000002384ED070A84F8243002B010BD00BFDB
:10225000C01CFF1F38B500F128050446284603F0CE
:102260002BF9284602F072FEDFED037A80EE270A92
:1022700084ED080A38BD00BF0000C842F0B4074D25
:1022800006460F460FCD06F1D8040FC40FCD0FC47C
:102290002B68236030463760F0BC70474C830000E9
:1022A0002DE9F0410A9C099EDDF818C084600025E4
:1022B0004660AE460561C5602C46074641FA04F605
:1022C00043FA04F516F0010F00EB8E0805F0010546
:1022D00017D0C8F814405CF82460D2F80080C7F822
:1022E000348007EE906AB8EEE77A07EE905AF8EE7F
:1022F000E77A0EF1010E87ED0F7AC7ED0E7AC0F87E
:1023000010E00134082CC46002F1040207F1100748
:10231000D4D1C0F8FCE0BDE8F08100BF2DE9F04366
:10232000D0F8108000239845C36059DD08F1040CF3
:10233000DFED2C5A00EB8C0C00F1B40E00F110060E
:1023400000F5927715E007EE909A36EEA66AB8EEA1
:10235000E77A91ED365A27EE066A664586EE257ACB
:1023600077EE667A67EE857AC0ED517AE7EC017A0E
:1023700034D056F8045F5EF8044F00EB0513D3ED3C
:102380000F7A93ED107A93ED0E6AFDEEE77A1D4613
:1023900017EE903AFDEEC77A03EB430117EE902A51
:1023A000B5EE406A1144F1EE10FAA4F2666900EB52
:1023B0008101D5ED0D6AC6D107EE909AB8EEE77AA5
:1023C000D1ED367A67EE266A664586EEA57A67EE27
:1023D000277AC0ED517AE7EC017ACAD1C0F80C80B7
:1023E000BDE8F08300CC4C4670B50D4C0126054687
:1023F00006FA01F182B080F8B41001782046FEF7A9
:10240000F1FC95F8B41020460025FEF765F9627BD3
:102410002169009533462046FEF7F6FF02B070BDF5
:10242000941CFF1F70B50F4D82B00646FFF7DCFF0E
:1024300001220023697B28698DE80C0002232822F1
:10244000FEF7F8FF2869FFF70FF804462869FFF741
:102450000BF840EA0420C0F30D00C6F8200102B0DA
:1024600070BD00BF941CFF1F026938B500239A425B
:10247000C36014DD054605EB830428466169FFF758
:10248000D1FFC4F8B800EB6805EB83020133D2F842
:10249000B810C2F800112A69EB609A42EBDC38BD33
:1024A00010B50446FFF7E0FF2046BDE81040FFF7F7
:1024B00035BF00BFF0B572B699B902688AB1037929
:1024C0000F2B0ED8274C218841FA03F5ED070AD5CA
:1024D00003F1007303F59063B2EB431F03D162B6BF
:1024E000F0BD204C2188002341FA03F212F00102D2
:1024F00007D00133102BF7D162B6002203710260BE
:10250000F0BD01259D402943218062B6164E174D2E
:10251000174FDFF864E0D9B20171346844F0020467
:1025200034602C6844F002042C60A6F580268224D6
:10253000A5F5802503F100733C6003F59063223E0E
:10254000243D0C4C8EF800105B0131702970217015
:1025500003601A605A609A60DA601A615A619A617F
:10256000DA61F0BDAA1CFF1F408004403C8004409B
:10257000008000401F8000401A80004003790F2B2C
:1025800012D80A4A10B4137072B6094904790A883D
:102590000123A34022EA03030B8062B6102200232A
:1025A0005DF8044B02710360704700BF1A80004061
:1025B000AA1CFF1F10B4EFF3108272B6437F33B929
:1025C000017F012908D0032910D00123437702B9E4
:1025D00062B65DF8044B7047114C2168A1B11149F6
:1025E00043610B68836108605861EEE70E4C216817
:1025F00081B10E4943610B688361086058610C4BDF
:102600004FF080511960E0E7064B41618161206025
:102610001860DAE7054B4161816120601860EEE7E0
:10262000B81CFF1FB41CFF1FAC1CFF1FB01CFF1FFA
:1026300004ED00E070B5EFF3108272B60C4C206828
:1026400080B10C4E00254369236073B19D6102B9CE
:1026500062B6457783689847EFF3108272B62068B8
:102660000028F0D102B962B670BD3360EFE700BF59
:10267000AC1CFF1FB01CFF1FFFF7DCBF024A136832
:1026800001331360704700BFC01CFF1F0368C9B24D
:102690001B6818470368C9B21B6818470368C9B2AA
:1026A0001B6818470368C9B21B681847084B4A08DB
:1026B000134410B50446B3FBF1F000F09DFD054B4B
:1026C0001B7803B110BD2046BDE8104002F024BACB
:1026D000001C4E0E610FFF1F08B5084600F0A8FF52
:1026E000012008BD08B5084600F0A2FF012008BD82
:1026F00038B508460D4605F0C3F90446014628469C
:1027000000F0A0FF204638BD10B50846144611461B
:1027100000F098FF204610BD01F072B808B50846D9
:1027200000F05EFF003018BF012008BD08B5084664
:1027300000F034FF003018BF012008BD08461146E4
:1027400000F0A8BE084600F0EFBE00BF084600F04B
:1027500085BE00BF00F00EBE10B5064B144603EB5D
:102760005100B0FBF1F000F047FD2046BDE81040FD
:1027700000F0CABD001C4E0E01F02AB800F0F4BFF4
:1027800000F0E2BF00F0C2BF00F0CCBF2DE9F04383
:102790008C688BB0ECB10025064689462F462B4647
:1027A000212201A9484600F007FA3268202C23466E
:1027B00028BF2023D2F8048001A91A4630461D44C0
:1027C000E41AC0470744002CE9D138460BB0BDE8F5
:1027D000F0832746F9E700BF00B5064A0368128870
:1027E0005B6883B001A9ADF804200222984703B0CA
:1027F0005DF804FBD0830000F0B507468BB0002ADB
:1028000033D0012A08BF0A2251B3212400E0F4B2D8
:10281000B1FBF2F502FB1511C8B2092900F1300134
:1028200098BFC8B20AA988BF3730214488BFC0B258
:1028300001F8240C661E2946002DE8D133B1013C75
:10284000E4B20AAB23442D2203F8242C3B6801AAEE
:1028500011195B683846C4F1220298470BB0F0BDED
:1028600030228DF825202124E8E70368C9B21B68CF
:1028700098470BB0F0BD00BF2DE9F04357EC106B4B
:1028800085B005460C4610EE102A3B4610EE100AA5
:10289000394604F0D3F8002840F0B28027F0004910
:1028A000304649464FF0FF32594B04F0C7F890B913
:1028B000304649464FF0FF32554B04F0A1F850B96D
:1028C0002B6854495B682846032298478046404657
:1028D00005B0BDE8F0834FF060424F4B30463946BB
:1028E00004F0A2F8002872D14FF060424B4B304602
:1028F000394604F07BF8002869D1002200233046D5
:10290000394604F073F8002864D18146002C67D062
:10291000434900204FF000083BA3D3E9002308F10E
:10292000010803F0F1FD5FFA88F39C42F4D80246F7
:102930000B463046394603F035FC0F46064604F098
:1029400093F8804603F06AFD02460B46304639464E
:1029500003F026FC4B4606460F460A22414628460F
:10296000FFF74AFF0F2C28BF0F2404F101092E2383
:1029700080465FFA89F98DF8003001240022294B46
:102980003046394603F0C0FD0F46064604F06CF8A9
:1029900004AB2344C0B200F1300203F8102C03F062
:1029A0004DFD02460B463046394603F0F9FB013433
:1029B000E4B24C4506460F46E0D12B6822465B68E0
:1029C000284669469847404605B0BDE8F0832B6825
:1029D000154977E707F100431F464FF0010995E7D6
:1029E00000220F4B3046394603F0DCFB04F03CF884
:1029F0004B4601460A222846FFF7FEFE804666E760
:102A00002B680A495EE700BF000000A09999B93F12
:102A1000FFFFEF7FDC830000FFFFEF41FFFFEFC10F
:102A20000000E03F00002440D8830000D483000071
:102A300010B50446006804F075FA204610BD00BFCA
:102A400038B543688B4201D3012038BD0D4604469A
:102A50000131006804F08EFD0028F6D0A36884E8F8
:102A60002100002BF0D10370EEE700BFF8B504465B
:102A7000154632B9036803B11A700023A3602046DB
:102A8000F8BD0E461146FFF7DBFF074648B9206840
:102A900010B104F047FA276000236360A36020466A
:102AA000F8BDA5603146206804F06EFFE7E700BF7F
:102AB00038B500230446036043608360037341B16B
:102AC00008460D4604F0DCFF294602462046FFF783
:102AD000CDFF204638BD00BF38B5054608460C4638
:102AE00004F0CEFF214602462846BDE83840FFF7F5
:102AF000BDBF00BF10B50446002386B023606360ED
:102B0000A3602373084601A904F002FA01A9204634
:102B1000FFF7E2FF204606B010BD00BF2DE9F843E5
:102B200003680F46BB420446816815460AD85A1806
:102B3000974207D2C3EB07094FF0010835B9204689
:102B4000BDE8F8834FF00008002DF8D04E1931464B
:102B50002046FFF775FF0028F1D0B8F1000F0ED026
:102B60002368A0682A4603EB0901184400F046F8E0
:102B7000236800229A55A6602046BDE8F8832068A5
:102B8000A3683946184404F0FFFEF4E710B58A68DC
:102B900009680446FFF7C2FF204610BD38B5054658
:102BA00041B108460C4604F06BFF21460246284618
:102BB000FFF7B4FF284638BDB2B1A9B138B5846873
:102BC0009C420ED9E41A013A0D469442016828BF8E
:102BD000144619442246284604F0C0FF00232B5512
:102BE00038BD00230B7038BD704700BF08B5FDF736
:102BF0003DFCFDF783FC01F019FFFAE7844641EA4A
:102C0000000313F003036DD1403A41D351F8043B64
:102C100040F8043B51F8043B40F8043B51F8043BB6
:102C200040F8043B51F8043B40F8043B51F8043BA6
:102C300040F8043B51F8043B40F8043B51F8043B96
:102C400040F8043B51F8043B40F8043B51F8043B86
:102C500040F8043B51F8043B40F8043B51F8043B76
:102C600040F8043B51F8043B40F8043B51F8043B66
:102C700040F8043B51F8043B40F8043B51F8043B56
:102C800040F8043B51F8043B40F8043B403ABDD2C5
:102C9000303211D351F8043B40F8043B51F8043B67
:102CA00040F8043B51F8043B40F8043B51F8043B26
:102CB00040F8043B103AEDD20C3205D351F8043BF6
:102CC00040F8043B043AF9D2043208D0D2071CBFC2
:102CD00011F8013B00F8013B01D30B8803806046EB
:102CE000704700BF082A13D38B078DD010F0030361
:102CF0008AD0C3F10403D21ADB071CBF11F8013BD1
:102D000000F8013B80D331F8023B20F8023B7BE71F
:102D1000043AD9D3013A11F8013B00F8013BF9D24A
:102D20000B7803704B7843708B78837060467047E4
:102D300008B5104C08E0236859050DD423681A051E
:102D40000FD42368DB0411D423685803F3D500F0B3
:102D5000DFFE23685905F1D500F078FD23681A05D8
:102D6000EFD500F009F82368DB04EDD500F004F896
:102D7000EAE700BF3480044008B5FFF7D9FF00BF81
:102D8000014B10221A80704700200540704700BF99
:102D9000094908B50B6830B16A461844A2F50052DB
:102DA000904202D20860184608BD04F06BF80C236C
:102DB00003604FF0FF3008BD5C0FFF1FEFF313807F
:102DC00070B9EFF310836BB9EFF305825AB94FF482
:102DD0008070EFF311832BB1984228BF18467047DB
:102DE0004FF0FF3070470F2A01D81846F1E7014B2A
:102DF000D05CEEE7F0E300E004F08CB804F092B8A9
:102E0000F0B44D1E2E46002400E00134B0FBF2F376
:102E100002FB1300092800F130078ABF3730F8B2EF
:102E2000C0B206F8010F1846002BEED10A195370F4
:102E30004CB1107815F8016F28700133E01A834205
:102E400002F80169F5DB0846F0BC704710B4114B7D
:102E500053F8302092F8804234B1012379B182F8DE
:102E600080305DF8044B704703EBC0035B681A6861
:102E700051B922F002021A605DF8044B704782F8E3
:102E800000315DF8044B704742F003021A605DF8B0
:102E9000044B7047E08300001C4A02EBC003012989
:102EA0005B6811D004291BD052F83000002280F852
:102EB000802229B1022920D0032922D01A6070472C
:102EC0004FF480721A60704752F830004FF4A272CB
:102ED00080F880121A601A6822F020021A60704787
:102EE00052F830104FF4A272012081F880021A606B
:102EF0001A6842F020021A60704740F203121A600A
:102F000070474FF481721A60704700BFE083000081
:102F100030B4054B054D064C002210211A602A6082
:102F20002060196030BC704714D0034004D00340C7
:102F300000D003403F2801D8FFF788BF704700BF8B
:102F40003F2801D8FFF7A8BF704700BF72B60C49F1
:102F50000C4B0D4A1B680868126862B6520102D514
:102F6000322B88BF01300949C3F5EA334FF47A7236
:102F7000BF33A1FB031302FB00F000EB931070477B
:102F8000C01CFF1F18E000E004ED00E0898888887D
:102F90002DE9F843054672B6204F214B214A1B68A4
:102FA0003C68126862B6520102D5322B88BF0134E8
:102FB00095B3C3F5EA331C4EDFF86490DFF8648004
:102FC000BF334FF47A72A6FB031302FB04F404EB45
:102FD000931472B6D9F800103A68D8F800E062B6D7
:102FE000C1F5EA33BF33A6FB03031EF0806FC4EBC9
:102FF00093134FF47A7002D0322988BF013200FB5C
:103000000233B3F57A7F04D3013D05D004F57A7419
:10301000DFE701F00BFDDCE7BDE8F883C01CFF1F14
:1030200018E000E004ED00E089888888F8B53E4BA0
:103030003E49DFF818C13E4E3E4ADFF814E13E4DEE
:103040003E4C3F4F4FF0006018604FF080501860CA
:103050004FF0005018604FF0804018604FF0004073
:1030600018600020086028234EF6FF71CCF800108D
:10307000CEF8003033600EF5012E13602B60236014
:1030800005F500253B6004F50024B36207F5002731
:10309000936206F5012602F501220EF1100E05F6E7
:1030A000E87504F6E87407F57F67103220362B6068
:1030B0002360CEF800303B6013603360214EBB616B
:1030C000936109223260A7F5002706F58056203F5C
:1030D000083638603160BB60F36047F8042C06F5B1
:1030E000FD2607F5FE2706F2FC76043730603960CE
:1030F000B360FB6046F8042C0836C7F8FC0F06F6F0
:10310000FC76114831602B602360026001F01AFDEB
:103110001920FFF73DFF01F061FA40F21310BDE8FE
:10312000F840FFF735BF00BF04E100E00480034032
:10313000148003401C800340248003402C80034003
:10314000348003400080034000900B40088003401F
:103150000C8003402DE9F84F214B1B6807460BB14B
:1031600001221A70DFF888901E4D99F80040DFF8B0
:1031700084801D4E01343F2C8ABF4FF0000A5FFA55
:1031800084FA5446AB462B78A34216D1FFF716FEBD
:1031900040281FDC33791B06F5D59BF8003001333E
:1031A0003F2B86BF00221346DAB218F80330DBB299
:1031B000F3712A702B78A342E8D00C490A4BFFB276
:1031C00008F804700120BC22087089F800A0DA70A9
:1031D000BDE8F88FFF28D6DD01F028FCD3E700BF5B
:1031E000541DFF1F511DFF1F00A00640501DFF1F53
:1031F000581DFF1FCC1CFF1F324A33491368F0B51E
:1032000043F4806313600A78304F314E314D324CB5
:1032100032490023152A3B7033702B7023700B70DA
:1032200045D01B2A3ED082B32D4B1B78052B34D0C2
:103230001A2B41D0012B1BD01F281FD8002002467B
:103240000125284B284C1A7028495D7004224FF044
:10325000020E88273C26402598729A704FF0004055
:1032600083F813E05A751F74DE7025700860F0BD96
:103270001F4B4FF451721F281A60DFD9C0F344323C
:10328000C0F3471500F01F00DBE71A4B40F2133282
:103290001A60134B1B78052BCAD1174B4FF4517290
:1032A0001A60C9E7154B40F213321A60BCE7144BA1
:1032B00040F213321A60B7E7124B4FF451721A60A2
:1032C000BAE700BF348004400C1DFF1FC81CFF1F5D
:1032D000C91CFF1F581DFF1F511DFF1F501DFF1F41
:1032E000600FFF1F00A006401FE400E000E100E0C7
:1032F00044A0044040A004401CC004403C90044052
:1033000018C0044038900440194B19499B7803F0C9
:10331000EC0200F003031343420700F00F0248BF22
:1033200043F01003042A8B701CD0114B104A5B79B8
:10333000C10603F0EF0348BF43F0100353719379C4
:10334000820603F0EF030A4A48BF43F0100393716B
:10335000C30506D553781178DBB241F02001117016
:10336000537070478B7943F040038B71DDE700BFEA
:1033700000A006402A4B1B685B0536D510B5294CCA
:10338000237823B101F052FB2378002BFAD1264891
:10339000264A274B4FF0004400210460D1701B786F
:1033A000152B23D01B2B35D01BB9224B40F2031217
:1033B0001A60214B1B7803F07F03052B20D01A2BBA
:1033C00023D0012B03D11D4B40F203121A601C4A7B
:1033D000164B1C481C4912681C79DB7900230370CA
:1033E0000B700AB10123137010BD7047174B40F2E8
:1033F00003121A60104B1B7803F07F03052BDED1FC
:10340000134B40F203121A60E1E7124B40F2031231
:103410001A60DCE7104B40F203121A60C9E700BFE4
:1034200034800440501DFF1F80E100E000A00640F2
:103430000C1DFF1F40A00440600FFF1F44A004406C
:10344000C41CFF1FC81CFF1FC91CFF1F18C004405D
:103450001CC00440389004403C9004400A4A38B5EF
:103460000546137803F0FF04002BFAD1012128460A
:10347000FFF766FD21462846FFF75CFD034A044B33
:1034800052F835201A6038BD501DFF1FE083000040
:10349000541DFF1F09B140F080001E4A1378984266
:1034A0001BD010B41C4C2468640513D503F07F03B3
:1034B000052B2AD01A2B24D0012B14D0002900F080
:1034C0007F0114BF60234423052915D01A290ED08B
:1034D000012903D010705DF8044B70470F4943F485
:1034E00040730B60F6E70D4B00241C60E6E70C49C7
:1034F00043F440730B60EDE70A4943F440730B60FB
:10350000E8E7074B00241C60D8E7064B00241C604A
:10351000D4E700BF600FFF1F3480044044A0044084
:10352000389004401CC00440174A137883420ED0E0
:1035300016490968490509D5152B20D01B2B1AD02F
:103540005BB115280DD01B2810D008B11070704742
:103550000F4B40F213311960F8E70D4915280B6045
:10356000F1D10C4B40F213311960EFE70A4B40F2F6
:1035700013311960EAE7084B00211960E1E7054BB8
:1035800000211960DDE700BF0C1DFF1F34800440DF
:1035900040A0044018C004403C9004400D4B1B6800
:1035A00013F4806305D03F2805D90B4B0020186029
:1035B000704718467047094B10B5074C53F8303028
:1035C00023600121FFF7BCFC236800221A70012050
:1035D00010BD00BF34800440C41CFF1FE083000006
:1035E0000F4B1B6813F4806308D0122808D01428EE
:1035F00011D00C4A537B03F0FE0353730020704735
:10360000094B40F202321A60064A537B43F0010331
:10361000537301207047054B40F202321A60F3E702
:103620003480044000A006400CA0044014C00440B4
:10363000034B1B685B0501D5FFF78CBD704700BFCE
:10364000348004402DE9F84F294B1B685A0548D5B2
:10365000284B1B6805460BB101221A7005EB010AC5
:10366000554540D2DFF89C80234CDFF89C90234FD7
:103670000AE015F8012B09F80B20214A0123AA457D
:10368000137088F800602ED098F80030227803F18B
:10369000010BBBF13F0F86BF0026B3465FFA8BF6E6
:1036A0009345E6D1BC22FA7005E03A7913060BD4B3
:1036B00022789345DDD1FFF781FB4028F5DDFF2817
:1036C000F6DD01F0B3F9F3E7227801323F2A86BF35
:1036D00000210A46D1B219F80220D2B2FA71217043
:1036E000E6E7BDE8F88F054BBC22DA70BDE8F88F3D
:1036F00034800440541DFF1F511DFF1F00A00640D1
:10370000501DFF1F581DFF1FCC1CFF1F10B5044C80
:10371000237823B101F08AF92378002BFAD110BD68
:10372000501DFF1F064A074B1B781078DBB2C0B252
:1037300083422CBF3F3000F1FF30C01A704700BFFA
:10374000511DFF1F581DFF1F054A064B10781B789F
:10375000C0B2DBB2984238BF4030C01A704700BFD9
:10376000C81CFF1FC91CFF1F30B4154B154C1A781D
:103770002378D2B2DBB29A421ED001333F2B0ED94E
:103780001149124B087819680023C0B2237021B187
:10379000D31A1A2B01DC00230B7030BC70470A4887
:1037A0000A49C05C0968DDB2C0B225700029F4D0B6
:1037B0009A4238BF4032EBE74FF0FF30EDE700BFF1
:1037C000C81CFF1FC91CFF1F101DFF1FC41CFF1FAB
:1037D000084A094B12781B78DBB29A4207D00133B2
:1037E000402B28BF0023054AD05CC0B270474FF081
:1037F000FF307047C81CFF1FC91CFF1F101DFF1F93
:103800000D4B1B685B0516D530B40C4B0C4CDA78AD
:103810000C480D4902F0CB024025DA705D74DA786D
:1038200042F03402DA7023780268DBB20B700AB11E
:103830000023137030BC70473480044000A0064061
:10384000C91CFF1FC41CFF1FC81CFF1FF0B4384B4E
:103850001A7912F0300F2CD072B6997D01F0FF0268
:1038600000293DD062B6334F334938780D78334E56
:103870001C46C0B2EDB2431C402BE17928BF0023A7
:10388000AB4202F1FF32C9B21CBFF154184612F02C
:10389000FF02F0D12A4B1B68C2B23A704BB1A8426A
:1038A00036BFC5F14005401B40192728C4BF01227F
:1038B0001A701F49CA78D2B2150616D452060DD511
:1038C0001B4B1B795B0609D51E4B1F491B68002249
:1038D0000A7003B11A70164B3C22DA70F0BC7047C4
:1038E0004022D9795A7462B6E3E70B791C06E5D514
:1038F000164B174E1C783378E4B2DBB29C420ED0E4
:10390000144D01E0A3420AD00133402B28BF00230D
:103910000879E85CC0B2C871087D0728F2D9DBB22B
:10392000034933700B79180644BF7C23CB70C5E77D
:1039300000A00640C81CFF1FC91CFF1F101DFF1F51
:10394000C41CFF1F541DFF1F501DFF1F581DFF1FCC
:10395000511DFF1FCC1CFF1F704700BF431E032BD0
:1039600014D872B60A4951F8230068B170B4094CF2
:10397000058834F81320466841F82360521B24F868
:10398000132062B670BC704762B670470020704763
:10399000B41DFF1FAC1EFF1F013803280BD872B6E1
:1039A000074B53F8203043B100205B680130002BF7
:1039B000FBD162B67047002070471846F9E700BF98
:1039C000081EFF1F30B472B62B4A13781D0706D5A8
:1039D0002A4B196A002936D0996A002941D05378B8
:1039E0001C0706D5254B196C00293ED0996C00297F
:1039F00039D09378190705D5204B196E002936D098
:103A0000996E89B1D3781B0707D51C4BD3F880205A
:103A10007AB3D3F8882011213AB162B6184B00224C
:103A20001A7030BC00F072BE0D21154C154D227875
:103A300043F8315003EBC1030830013A586022705B
:103A400062B630BC704704220D4C0F4D217843F80C
:103A5000325003EBC20308304A1E5860227062B62F
:103A6000EFE70521E1E70921DFE70822ECE70C2277
:103A7000EAE71022E8E700BF088600000000FF1F09
:103A8000311EFF1FC800400088004000431E032B6A
:103A90001DD81B4A400140F0100030B4104472B6EB
:103AA000184CE25C032A1BD8DFE802F0021215175B
:103AB00003220D88E25410F0080F14BFC823882396
:103AC00043EA054308310360416062B630BC704789
:103AD00008300222EDE70522EBE708300422E8E790
:103AE000094A52F8230038B1084A52F823004160CD
:103AF00042F8231062B6E9E742F82310034AF7E7D9
:103B00000000FF1F401EFF1F081EFF1F181EFF1F83
:103B10002DE9F04FDFF818B3DFF818A387B044E0C1
:103B2000AE4F4FEA930807EBC809013ED9F80420CD
:103B300003F00803F6B2A2F1080003F0FF04002B23
:103B400040F0048157F838301B0C99B222F8081C59
:103B5000002B00F0F280A24B22F8064C42F8044CF5
:103B600053F82620002A00F06E819E4D55F826302D
:103B700058609D4C45F8260034F81630194424F856
:103B8000161000F0A3FD002800F05681974A984BCC
:103B900019F0080F00F1080018BF1346C9F8040017
:103BA00047F8383008238BF800309BF80040E4B227
:103BB00061071BD58F4B1B78ABB18F490A7802F098
:103BC000FF032AB1013BDBB20B70002B00F0EF8446
:103BD0008A490A7802F0FF032AB1013BDBB20B707D
:103BE000002B00F0F78004238BF8003004F008036A
:103BF00003F0FF02002B00F0D6809AF80030DBB211
:103C00001E098DD19C08DFF8D49159F8342009EBB6
:103C1000C401C2F38302013A49680C2A7ED8DFE866
:103C200002F081817D7D7D7D7D7D477D7D7D0700ED
:103C30000868734D4A68734F734E286081B240F232
:103C400081606A4B6A604FF0010E0022814249F8A0
:103C500034303A60C9F81020C9F8182086F800E01E
:103C60005E4C00F2F480B1F5D06F80F07883B1F54E
:103C7000817F00F0628300F28782802900F0EC826D
:103C8000822940F01E83A98801F07F01042900F2F7
:103C900018835E485E4C8900084422706270027886
:103CA000930740F1798384F800E04FF0020ED8E2E8
:103CB000544F3A6842B3574B534E5749188834789B
:103CC0000D784028864645F0020828BF4FF0400E88
:103CD000002C84F001043470CEEB00000CBF88246B
:103CE000C82409EBC80680B285F0010544EA0E44F9
:103CF0007260188049F8384072440D7018B9BEF1EE
:103D0000400F18BF00223A603D4B1A88B2F5A06FF1
:103D100004D100219A785970404B1A70404A01230F
:103D200013703FE7364A158842F22100854200F0C1
:103D3000FF812E4A49F83420F0E72C4A2C4B19F029
:103D4000080F18BF134647F838302BE700F0DEFCA9
:103D5000344A354952F82630002B00F0B6815868B5
:103D60008C5D42F8260003F10802C9F80420032CF8
:103D700005D8DFE804F0120F150204228A551A88CC
:103D800019F0080F0CBF8823C82343EA024347F801
:103D9000383007E702228A55F1E703228A55EEE719
:103DA00005228A55EBE7E00700F11A82210600F1AF
:103DB0004982A20706D51D4A1D4913780220DBB2AD
:103DC00013700870E30602D5194B10221A7007B061
:103DD000BDE8F08F00F006FE05E700BF0000FF1F02
:103DE000B41DFF1F601DFF1FAC1EFF1FC800400059
:103DF000880040003C1EFF1FC51DFF1F441EFF1F03
:103E0000281EFF1F5C1DFF1FC41DFF1FC020074091
:103E1000341EFF1F701DFF1F301EFF1F982007401C
:103E200094200740081EFF1F401EFF1F88200740E8
:103E30008020074090200740AB4A47F838001378AD
:103E400001331370AEE643F82600A84D91E642F226
:103E50002100814200F0358100F2AF81B1F5086F99
:103E600000F01B82B1F5106F40F02B82226AA0494E
:103E7000A8780870120600F14583D9F828209D49DA
:103E8000130600F13A83D9F830209A49150600F15B
:103E90002F83D9F838209749140600F12483D9F8E4
:103EA00040209449100600F11983D9F8482091491F
:103EB000120600F10E83D9F850208E49130600F146
:103EC0000383D9F858208B49150600F1F882D9F8F8
:103ED00060208849140600F12983D9F868208549B3
:103EE000100600F11E83D9F870208249120600F1F5
:103EF0001383D9F878207F49130600F10883D9F895
:103F000080207C49150600F11C83D9F88820794966
:103F1000140600F11083D9F890207649100600F1BC
:103F2000C882D9F898207349120600F1BC82724801
:103F3000724A7349019073486C4D734C0497002387
:103F400005960295804617460E461D46039438682E
:103F500028B1446800F0DAFB2046002CF9D1002398
:103F60003B60029B30681A46002342F8253028B196
:103F7000446800F0CBFB2046002CF9D100223260CF
:103F8000019A98F800301146002241F8042B039A58
:103F90000191023B4FF0000122F81510032B09D8C4
:103FA000DFE813F04B0104004B0104004FF0010364
:103FB00088F800300135042D07F1040706F10406E6
:103FC00008F10108C3D1514C514B2278464D049F52
:103FD000059E002129701A70130700F14F82627844
:103FE0004C49DFF810810A7010074FF00001C9F842
:103FF0003010C9F8381000F12B824749A2780A70B6
:104000000021C9F85010C9F858101107DFF8E480F2
:1040100000F1DC81E2784149364C0A700021120738
:10402000C9F87010C9F8781000F1B981337801939C
:10403000002183F00102C9F89010C9F898100020FF
:10404000029080468446044635490D7845F0020EBC
:1040500009EBCE030393019B002B039B5C600CBF19
:104060008824C82444EA080385F0010449F83E3056
:1040700032700C70DFF87CE02A4BDFF8A480002857
:1040800040F02681BCF1400F1BD144F0020C09EB3B
:10409000CC03029CDFF85CE05C60002A40F02E81DB
:1040A000020442F088029DF804304EF83C2004449B
:1040B00033700D702346402803D100201A4A3B601C
:1040C00010801A4A0123137028E68B5D032B00F23F
:1040D0002D8101A252F823F0A53B0000A53B000072
:1040E0002F42000035420000311EFF1F601DFF1FE0
:1040F0003C1EFF1F0000FF1F181EFF1FB41DFF1FE7
:10410000081EFF1F401EFF1FAC1EFF1F0886000079
:10411000C4200740C8200740CC200740D0200740DB
:10412000301EFF1FC41DFF1F701DFF1F942007407E
:10413000928892B9B14A0D784878157050708D7890
:10414000C8789570D07010680D79157186284D79F2
:1041500089795571917100F0A580A949A94E0A7815
:10416000307882F00105002842F002020D700CBF89
:104170008821C82149F8321009EBC20280F0010001
:10418000002130705160D4E540F20232914240F09B
:104190008D80A98801F07F01042900F292806A884D
:1041A000002A40F08E809848CDF804E08900084449
:1041B000017841F00201017041E742F22120814281
:1041C0007BD1A988002940F0E480904B904A914827
:1041D000AC781D681560CDF804E00A4604702EE73F
:1041E0008D4B8E4886491A614FF0020E80F800E030
:1041F000854F0A708A49196099608A4E8A4D8B4CA6
:104200009A610D213970FF213170DFF840E2297089
:104210002270874D874A8EF800109F27012406F8E8
:10422000047C5D600470DA6007B0BDE8F08F0023A5
:104230008B55B7E401238B55B4E44FF0000388F8A5
:104240000030B7E67049784B80220D2008701A7054
:10425000A2077FF5B7ADAEE5774C4FF0020E2270A6
:104260006270EA88724580F0A38165490D78402A22
:10427000944645F0020E28BF4FF0400C04EB0C03AF
:1042800009EBCE000293012344604FEA0C48CCEBCB
:10429000020001930022C824E4E6684A664C1278C2
:1042A0002270DEE7664A0F21117056E7B1F5A06F64
:1042B00007D1012300220193C1E642F2213291424B
:1042C000F7D0514A0F231370544A0123137025E588
:1042D00040287FF6DAAE44F002040EEBC401029EE1
:1042E0004E60BAB19DF80410564A197033464038F2
:1042F00088F8005040334EF83420DFE69DF8043053
:1043000033700204029B0D7042F0C80203444EF861
:104310003C20D0E69DF804101970029B404A88F8B2
:104320000050403840334EF83420C7E619F0080FEB
:104330000CBF022303238B5534E4A98801F07F01CD
:104340000429BED86A88002ABBD12F48CDF804E0E2
:1043500089000844017821F0020101706FE63A4AB1
:104360005468002CADD06888B5F804E003E00C3246
:104370005468002CA5D013888342F8D15388734524
:10438000F5D1000A03280CBF94F800E0B2F808E069
:1043900067E7CDF804E052E64FF0020E61E700F067
:1043A00095F9002800F0F18008301D4AC4F8840017
:1043B000C4F8802000F08AF9002800F0E08008307E
:1043C000204AC9F88C00C9F888202FE600F07EF951
:1043D000002800F0E6800830114AC8F86400C8F8E8
:1043E000602000F073F9002800F0D5800830154AED
:1043F000C9F86C00C9F868200CE600BFB41EFF1FA6
:10440000301EFF1FC41DFF1FC0200740C01CFF1F20
:10441000BC1EFF1F541EFF1F0000FF1F94200740FB
:1044200088004000882007408020074098200740EF
:10443000741DFF1FC81DFF1F341EFF1F3C1EFF1FE2
:10444000C51DFF1FC80040000C8600008C200740DF
:1044500000F03CF9002800F08C8008305D4AC8F874
:104460004400C8F8402000F031F900287BD0083023
:10447000594AC9F84C00C9F84820BEE500F026F9B1
:1044800000286AD00830534AC9F82400C9F820200F
:1044900000F01CF900285AD008304F4AC9F82C0007
:1044A000C9F828209BE5D1F89C00083800F02EF9C7
:1044B0003DE5D1F89400083800F028F931E5C86DE1
:1044C000083800F023F902E5486D083800F01EF9BD
:1044D000F7E4C86C083800F019F9ECE4486C0838C7
:1044E00000F014F9E1E4C86B083800F00FF9D6E4E5
:1044F000486B083800F00AF9CBE4C86A083800F0C5
:1045000005F9C0E4606A083800F000F9B5E4C86F46
:10451000083800F0FBF8F2E4486F083800F0F6F8CD
:10452000E7E4C86E083800F0F1F8DCE4486E0838BB
:1045300000F0ECF8D1E4D1F88C00083800F0E6F88F
:10454000E9E4D1F88400083800F0E0F8DDE42A78E6
:10455000C9F8280001322A7041E52A78C9F82000FC
:1045600001322A7094E72A78C9F8480001322A708B
:1045700043E52A78C8F8400001322A7073E72A78A8
:10458000C9F8880001322A7050E52A78C4F8800002
:1045900001322A700EE72A78C9F8680001322A70C1
:1045A00038E52A78C8F8600001322A7019E700BEA1
:1045B000BEF1400FF44628BF4FF0400C04EB0C0353
:1045C00002930123CCEB0E004FEA0C48002201932A
:1045D0003AE500BF88004000C80040002DE9F843DC
:1045E000244C00F021FB002204F1A00023461A60B5
:1045F0005A60083383424FF00001F8D11E481F4A29
:104600000368DFF890E01E4F1E4D1F4EDFF88880D4
:10461000DFF888C0DFF8889043F4802303601368D4
:104620001A4843F040731360C4F307238EF8003038
:10463000C4F307433B70240EFF2302F5C9222C70FC
:1046400002F5847288F80030114D8CF80030337018
:10465000012389F8003070268EF864104FF400149E
:10466000102107F82C3C2E70046011700EF1640EBE
:10467000BDE8F8830000FF1F3480044000D80040EC
:10468000B0200740B42007401020074004E100E0BC
:1046900035E400E09C200740802007408820074048
:1046A0009420074000F0A2B800F07AB800F054B8A7
:1046B00000F08EB800F06AB900F044B9084611461F
:1046C00000F0B0B8084600F031B900BF72B60D482E
:1046D0000268B2FA82F30B2B10DC4FF00041D94094
:1046E00022EA0102026062B6074803EBC303DB0063
:1046F000C2180021C15010465160704762B60020B8
:10470000704700BF740FFF1F9803FF1F0D4B0E4A29
:10471000C31AA2FB03231B090B2B0CD80B4A1278DC
:1047200052B972B60A484FF00041026821FA03F309
:104730001A43026062B67047064A1278002AF0D027
:10474000FFF740B99803FF1F398EE338311EFF1F72
:10475000740FFF1F3C1EFF1F38B50F4D286878B13E
:1047600043880288C118013393420C7A02D24380F5
:10477000204638BDFFF7CAFF002320462B6038BD16
:10478000064B1B782BB10320FFF7E8F828600028C0
:10479000E6D14FF0FF3038BD501EFF1F3C1EFF1FFB
:1047A00010B5094C206818B143881844007A10BD30
:1047B000064B1B782BB10320FFF7D0F820600028B0
:1047C000F2D14FF0FF3010BD501EFF1F3C1EFF1FE7
:1047D000044B054A1B6890881BB11A885B88D31A62
:1047E00018447047501EFF1FAC1EFF1F0B4B1B7859
:1047F0009BB110B50A4C206848B1FFF787FF002332
:1048000003202360FFF7AAF830B1FFF77FFF0320F2
:10481000FFF7A4F80028F8D110BD70473C1EFF1F19
:10482000501EFF1F2DE9F04FDFF8F89083B00122F2
:1048300089F80020019169B3DFF8EC80364F019EC2
:104840008346D8F80000B0B3344D4488C4F1400129
:10485000B14228BF314604EB010E00221FFA8EFE42
:104860002A70761AA0F802E000F1080251B1013C6A
:10487000224459441BF8014B02F8014F8B45F9D1F2
:10488000B0F802E0BEF13F0F0BD8254A05211170A8
:10489000002ED6D10198002389F8003003B0BDE87E
:1048A000F08F4022028001460420FFF7EFF800223B
:1048B000C8F80020E9E73A782AB3184D4DF2E90428
:1048C0004FF0010A07E0013C16D02A78A2B900F0A7
:1048D000ADF83A78BAB10420FFF75EF80728F2D8AD
:1048E00089F800A0FFF7F2FEC8F800000028ACD15C
:1048F0000C4B013C1870E8D101234FF0FF302B70B6
:1049000003B0BDE8F08F00234FF0FF3089F800308E
:1049100003B0BDE8F08F00BF3C1EFF1F4C1EFF1F01
:10492000441EFF1F451EFF1F481EFF1F00B583B01A
:1049300002AB012103F8010D1846FFF773FF03B026
:104940005DF804FB38B50E4D0E4C2868012323702A
:1049500028B1408800232370C0F1400038BD0A4BC5
:104960001B7813B90020207038BD0420FFF714F81D
:104970000728F7D8FFF7AAFE28600028E9D1F1E759
:10498000481EFF1F451EFF1F3C1EFF1FF8B5114BA1
:104990001B788BB1104E114D346801272F7064B114
:1049A0000F4A638800271770214623800420FFF7F1
:1049B0006DF8376000232B70F8BDFFF787FE084BBA
:1049C00028B1014604201C70FFF760F8F2E71F7061
:1049D000F0E700BF3C1EFF1F481EFF1F451EFF1FC4
:1049E000441EFF1F38B50E4B1B7873B90D4C216860
:1049F00061B103F0FF054B880B800420FFF746F8F8
:104A0000256038BD084B01221A7038BDFFF75EFEE5
:104A10000028F7D00146BDE838400420FFF736B83B
:104A2000451EFF1F481EFF1F441EFF1F2DE9F843B0
:104A3000314E337893B1314F3A787AB90122D907A0
:104A40003A7036D49A0719D400225B073A7005D51C
:104A50002B4B1A6812B1EFF305820AB1BDE8F88357
:104A6000EFF3108172B6186818B1264C2278002A2C
:104A70002ED00029F2D162B6BDE8F883DFF890802D
:104A800098F80020002ADFD0DFF88890002405E0A5
:104A9000013498F80030E4B2A34212D959F82450F6
:104AA0002B6828461B6998470028F1D02B69984746
:104AB000EEE7FFF78DFEC8B9134B1B781BB93378AF
:104AC000C0E73378C0E7337803F0FE033370B9E70B
:104AD00045691D60012323705DB1AA6101B962B609
:104AE00000254577836898472570B7E700F09AF866
:104AF000E2E7064B1D60F1E7780FFF1F551EFF1F11
:104B0000B81CFF1FBC1CFF1F7B0FFF1FB41CFF1F27
:104B1000701EFF1F581EFF1F30B40749074C0A784C
:104B20002378074D42F0020245F823000A70013352
:104B3000237030BC704700BF780FFF1F701EFF1F2F
:104B4000581EFF1F30B42948294A2A4B2A4D602499
:104B5000E121047011701B78284C082B30D00A2BEF
:104B60002748284937D00C2B0CBF35225D22122351
:104B70002A60236002600B60234B24491B78244A7F
:104B8000BBB101230B601360224B23491B78234ADE
:104B9000012B26D9042B0FD9082B1ED9102B94BF1B
:104BA000862387230B6013601D4B01221A7030BCD3
:104BB00070470B601360E7E784230B601360F3E733
:104BC00000F58E200F490830212213232A6023602C
:104BD00002600B60D0E73922F7E785230B60136092
:104BE000E2E780230B601360DEE700BF0040074070
:104BF00001400740790FFF1F08B003400CB003408D
:104C000008B00B400CB00B40721EFF1F20B00340D9
:104C100020B00B407A0FFF1F24B0034024B00B409C
:104C2000711EFF1F704700BF72B6184A184B194912
:104C30001160702280211A701A46197013781B06B1
:104C4000FCD510B5144B84B0186862B6134B144CE5
:104C5000984298BF00EB800001A998BF40000A224B
:104C6000FEF7CEF801A92046002311F8012B0133ED
:104C70003AB10A2B20F8022FF7D11623237004B083
:104C800010BD5B00DBB2237004B010BD0400024015
:104C900000000240000007410C0002407F9698008F
:104CA0000810FF1F0B460146184602F0E5B800BF8A
:104CB000F0B50E4E04468E460FCE04F110050FC51A
:104CC00096E80300002301278026032285E80300DD
:104CD00084F8327084F8346084F8362084F83330F5
:104CE00084F83530C4F808E02046F0BD6086000046
:104CF00070B504464800C0B204EB8101002A20735D
:104D00000D6984F82D2014BF0121002184F8311091
:104D100014BF94F8341094F83520A56218BF5218C7
:104D20005B0194F83610154D94F8326084F82E60CB
:104D3000DBB284F82C3002440B44DBB2D2B282B036
:104D400084F83830E37184F8303084F83720A27169
:104D500084F82F202846217AFCF744F804F12E012C
:104D600028460322FBF7EAFC00236A7B29690093AB
:104D700028460123FCF748FB02B070BD941CFF1FBE
:104D800030B5054683B090F83730032904D8DFE802
:104D900001F01E221A02703385F82F30104C297A48
:104DA0002046FCF71FF805F12E0120460322FBF7F1
:104DB000C5FC00230093627B216920460123FCF798
:104DC00023FB03B030BD603380F82F30E6E740337B
:104DD00080F82F30E2E7503380F82F30DEE700BF55
:104DE000941CFF1F70B51C4C017A054682B020460A
:104DF000FBF7F8FF002695F833102046FBF76CFC14
:104E0000627B2169009620460123FCF7FDFA01230D
:104E10002A7A617B0196009320690223FCF70AFB42
:104E20002069FCF721FB06462069FCF71DFB40EAE0
:104E3000062000B207EE900AB8EEE77AD5ED0A7ABE
:104E4000DFED066A688767EE277AA88067EEA67AA4
:104E5000C5ED007A02B070BD941CFF1F0000003841
:104E6000F0B4384D384C856580260225052780F83A
:104E7000666084660126042480F88D50032580F83E
:104E80008E7080F88F60D027E02680F8904080F800
:104E90009250B624F22580F8947080F89560F3273C
:104EA000F42680F8964080F89750F524F72580F88E
:104EB000987080F8996088278A2680F89A4080F850
:104EC0009B508C248E2580F89C7080F89D609027E4
:104ED000922680F89E4080F89F509424962580F872
:104EE000A07080F8A16098279A2680F8A24080F8E8
:104EF000A3509C249E2580F8A47080F8A560A1276B
:104F0000E12680F8A64080F8A7500024E32580F829
:104F1000A87080F8A960E427E52680F8914080F821
:104F2000934080F8AA50E72580F8654080F8AB7080
:104F300080F8AC6080F8AD50416580F85020F0BC3E
:104F4000704700BF801A06008096980090ED000A16
:104F5000704700BFF0B4B0F86C70B0F97060B0F991
:104F60006E409FED117AC7EB211505FB05F57F001B
:104F7000C7EBE1012D1306FB05F504FB01F1AD13B1
:104F8000C9124E1906EB86048034241207EE904AAB
:104F9000F8EEE76A0562C6EE877AC1611660446280
:104FA000F0BCC3ED007A70470000C8422DE9F04F15
:104FB000B2F5FA344FEAE27545F1FF3587B0A4FB4C
:104FC000046704FB05F207EB4202CDE9006701929A
:104FD000DDE900ABB0F97680B0F9746008FB0BFE38
:104FE00006FB05FC4FEAE879F7170AFB09EE04FB1C
:104FF00007C2A8FB0A89A6FB046717444FF0000A02
:105000004FEA18224FF0000BCDE902AB02923A03AF
:105010009346029AB0F97A80F14442EA0962029218
:105020004BEA165293464FEA292203923203DDE9F6
:1050300002674FEAE879B61808FB05F204FB09227B
:10504000A8FB0445154447EB0B076A044FF0000A20
:105050004FF0000BCDE902AB16F100080392464673
:10506000039AB0F8728047F50049A6FB08AB42EA04
:10507000D432039208FB09B2B0F97C80019ECDE9DD
:1050800004ABC246059262040292524602FB06F24B
:10509000DDE90067B0F97840CE464FEAE87906FBD3
:1050A0000922AAFB06AB2646F500DDE90267934418
:1050B0004FF00008059A444616EB0A064FEA6208CC
:1050C00047EB0B074FEAE27916EB040A47EB050BB7
:1050D00058EA0902C0E90A89C0E90CAB00F08380F4
:1050E000C1F580161C46F3170546D907F007B0EB4B
:1050F0000A0A41EA560161EB0B0B1AEB0A004BEB73
:105100000B0110EB0A0041EB0B018B01820143EA1A
:105110009063801859418B00820043EA907312EB30
:105120000A0043EB0B018B00820043EA90731046A8
:1051300010EB0A00194642464B4641EB0B0101F0C9
:10514000B3FCB5F98220B5F980A04E13470B47EAAE
:10515000C14702FB06FED31707FB03EEA2FB0723A2
:10516000734402FB06F607FB03664FEAEA7BA2FBE9
:1051700007230AFB01F733444FEA526800FB0B7622
:10518000AAFB00ABB34448EAC3184FEADA464FEA39
:10519000636946EA4B3610EB0800B5F97EA04FEA8A
:1051A000EB4741EB090180197941020A42EA0162A9
:1051B0004FEA0A1012184FEAEA7B07EE902A4FEAEC
:1051C00021234FEA0B1141EA1A71FBEECC7A4B41D5
:1051D000C5E90A89C5E90C67C5E90E23C4ED007A63
:1051E00007B0BDE8F08F00221A6007B0BDE8F08F6D
:1051F000F0B590F8857090F98C50B0F988E0B0F96E
:105200008A40A2F5963202FB07F702FB05F6FF1271
:1052100007F50047B51205FB07F5B0F986604FEAC0
:105220000E57AD12C7EB813105F5001502FB1414C2
:1052300006FB05F504F5804405F50052E4139213CE
:1052400004FB02F1CA1390F8844002FB02F2D2116F
:1052500004FB02F2A1EB221222EAE272B2F1C85F71
:10526000A8BF4FF0C852111307EE901AFAEECB7A8E
:105270000264C3ED007AF0BD2DE9F04190F865704D
:1052800082B00546884616461C46002F00F09180E5
:10529000026ED0F868C0634FDFF8A8E1002102E099
:1052A000172808D0014637F8023F9EFBF3F39C45D0
:1052B00001F10100F4D35C48D37A50F8211041F099
:1052C00060502BB372B6D37ADF0709D5DFF878E1E7
:1052D000D768DEF800303B409361CEF80030D37AD7
:1052E0009F0709D5DFF864E11769DEF800303B401D
:1052F000D361CEF80030D37A5F0708D5DFF850E1EC
:105300005769DEF800303B401362CEF8003062B6D9
:105310001368DA68824207D041F0F041434F444AB3
:105320001F60D86019611A60002195F86400FDF7CC
:1053300001FE2A6E95F86630126848EA03034FF0C2
:105340000041D1625363D36A002BFCDA936B9EB1A8
:10535000701E54FA80F0611E4FF000460024D662A1
:105360005463D36A002BFCDA936B01F8013F884247
:1053700002D02B6E1A68F2E7012195F86400FDF760
:10538000D9FD2A6ED37A83B1D80703D5294B916909
:105390001960D37A990703D5274BD1691960D37A5D
:1053A0005B0702D5254B126A1A60012002B0BDE8E6
:1053B000F08190F85010406DFBF714FD686D0368A4
:1053C00041461B689847686D3B46427B01690097E0
:1053D000FCF71AF86B6D95F85020597B1869019706
:1053E000012300933346FCF725F8C0B2B042E865CC
:1053F00015D10028D9D0013854FA80F6104F013C5D
:1054000006E00069FCF730F804F8010FA642CCD0A2
:10541000686D03685B69BB42F3D09847F4E74FF0CF
:10542000FF30C3E7D68100009C82000001403F00AE
:1054300000003F8000E100E004E100E008E100E05E
:105440008D0600000087930380E100E084E100E026
:1054500088E100E0F8B50F4616461D4690F89B100F
:1054600000F1480308220446FFF706FF002820DB6E
:1054700094F8492094F8483094F84A10120142EA0E
:10548000033343EA11133B6094F84C2094F84B30FB
:1054900094F84D10120142EA033343EA11133360CA
:1054A00094F84E2094F84F3003EB02232B60012038
:1054B000F8BD4FF0FF30F8BDF0B590F89250032DD5
:1054C00083B0044600F0ED80012D01D003B0F0BDA3
:1054D00090F86560002E7AD0026E876E7E4D7F4E0A
:1054E000002102E0172808D0014635F8023F96FB5C
:1054F000F3F39F4201F10100F4D37948D37A50F8D5
:10550000211041F06050BBB172B6D37ADE0706D5E8
:10551000744DD3682E68334093612B60D37A9D0716
:1055200006D5714D13692E683340D3612B60D37A51
:105530005F0700F1C98062B61368DA68824207D05B
:1055400041F0F041694D6A4A1D60D86019611A60E6
:10555000002194F86400FDF7EDFC236E94F86610CA
:1055600094F899201B6822EA01024FF00041D962A9
:105570005A63DA6A002AFCDA94F88E2094F88D00D7
:1055800094F892109D6BD20042EA40120A43D2B2C4
:105590004FF00041D9625A63DA6A002AFCDA01212D
:1055A00094F864009B6BFDF7C5FC226ED37A002B48
:1055B0002ED0DE0703D54F4B91691960D37A9D0732
:1055C0007DD4580724D54C4B126A1A6020E090F81D
:1055D0005010406DFBF706FC606D94F8991003685D
:1055E0001B68984794F88E2094F88D30606D94F87D
:1055F00092100768D20042EA43131943C9B23B68CC
:105600009847606D2B46427B01690096FBF7FCFED4
:105610004FF4C873013BFDD104F148052B4694F8C3
:10562000981020460122FFF727FE94F8483019070A
:105630000AD42B46012294F898102046FFF71CFE4E
:1056400094F848301A07F4D52B46012294F89810A4
:105650002046FFF711FE94F848301B07F4D404F1FC
:10566000180304F1140204F110012046FFF7F2FEC2
:10567000002820DB231D04F10C0261692046FFF79E
:1056800069FC2346E26821692046FFF78FFC20462B
:1056900004F10803E268A169FFF7AAFD012003B045
:1056A000F0BD00F1180300F1140200F11001FFF742
:1056B000D1FE0028DEDA4FF0FF3003B0F0BD0F4B13
:1056C000D1691960D37A7CE70D4D53692E68334058
:1056D00013622B602FE700BFD68100000087930381
:1056E0009C82000080E100E084E100E001403F0096
:1056F00000003F8000E100E008E100E004E100E09C
:1057000088E100E038B500F148052B4690F89C1080
:1057100002220446FFF7B0FD0028C0F22D8194F864
:10572000492094F8483094F89D1043EA0223A4F8E5
:105730006C3002222B462046FFF79EFD0028C0F267
:105740001E8194F8492094F8483094F89E1043EA5A
:105750000223A4F86E3002222B462046FFF78CFD70
:105760000028C0F20F8194F8492094F8483094F84A
:105770009F1043EA0223A4F8703002222B462046F1
:10578000FFF77AFD0028C0F2008194F8492094F8D0
:10579000483094F8A01043EA0223A4F872300222A1
:1057A0002B462046FFF768FD0028C0F2F18094F8F0
:1057B000492094F8483094F8A11043EA0223A4F851
:1057C000743002222B462046FFF756FD0028C0F217
:1057D000E28094F8492094F8483094F8A21043EA03
:1057E0000223A4F8763002222B462046FFF744FD20
:1057F0000028C0F2D38094F8492094F8483094F8F7
:10580000A31043EA0223A4F8783002222B46204654
:10581000FFF732FD0028C0F2C48094F8492094F8C4
:10582000483094F8A41043EA0223A4F87A30022204
:105830002B462046FFF720FD0028C0F2B58094F8E3
:10584000492094F8483094F8A51043EA0223A4F8BC
:105850007C3002222B462046FFF70EFD0028C0F2C6
:10586000A68094F8492094F8483094F8A61043EAAA
:105870000223A4F87E3002222B462046FFF7FCFCD0
:105880000028C0F2978094F8492094F8483094F8A2
:10589000A71043EA0223A4F8803002222B462046B8
:1058A000FFF7EAFC0028C0F2888094F8492094F8B9
:1058B000483094F8A81043EA0223A4F88230012269
:1058C0002B462046FFF7D8FC002879DB94F84830B7
:1058D00084F8843002222B4694F8A9102046FFF762
:1058E000CBFC00286FDB94F8492094F8483094F8FA
:1058F000AA1043EA0223A4F8863001222B46204650
:10590000FFF7BAFC002861DB94F8483084F8853052
:1059100002222B4694F8AB102046FFF7ADFC00287E
:1059200057DB94F8493094F8482094F8AC1003F011
:105930000F0343EA0213A4F8883002222B462046C4
:10594000FFF79AFC002847DB94F8483094F8492088
:1059500094F8AD101B1143EA0212A4F88A202B46DA
:1059600001222046FFF788FC002838DB94F84830F5
:1059700084F88C30012038BD4FF0FF3038BD6FF017
:10598000010038BD6FF0020038BD6FF0030038BD74
:105990006FF0040038BD6FF0050038BD6FF00600F1
:1059A00038BD6FF0070038BD6FF0080038BD6FF0EC
:1059B000090038BD6FF00A0038BD6FF00B0038BD2C
:1059C0006FF00C0038BD6FF00D0038BD6FF00E00A9
:1059D00038BD6FF00F0038BD6FF0100038BD6FF0AC
:1059E000110038BDF0B590F8657083B004460E46DE
:1059F0001546002F00F09380026ED0F868C0534F18
:105A0000DFF864E1002102E0172808D0014637F8EA
:105A1000023F9EFBF3F39C4501F10100F4D34C4897
:105A2000D37A50F8211041F060502BB372B6D37A7C
:105A3000DF0709D5DFF834E1D768DEF800303B40F6
:105A40009361CEF80030D37A9F0709D5DFF820E1C3
:105A50001769DEF800303B40D361CEF80030D37ACE
:105A60005F0708D5DFF80CE15769DEF800303B40EE
:105A70001362CEF8003062B61368DA68824207D04B
:105A800041F0F041334F344A1F60D86019611A6009
:105A9000002194F86400FDF74DFA236E94F8662017
:105AA0001B6826EA02024FF00041D9625A63DA6AA3
:105AB000002AFCDA4FF00042996BDA625D63DA6A21
:105AC000002AFCDA012194F864009B6BFDF732FA9E
:105AD000226ED37A83B1D80703D5204B9169196020
